{
  "_format": "hh3-artifact-1",
  "contractName": "MoneyPot",
  "sourceName": "contracts/MoneyPot.sol",
  "abi": [
    {
      "inputs": [],
      "stateMutability": "nonpayable",
      "type": "constructor"
    },
    {
      "inputs": [],
      "name": "AttemptCompleted",
      "type": "error"
    },
    {
      "inputs": [],
      "name": "AttemptExpired",
      "type": "error"
    },
    {
      "inputs": [],
      "name": "ExpiredPot",
      "type": "error"
    },
    {
      "inputs": [
        {
          "internalType": "uint256",
          "name": "required",
          "type": "uint256"
        },
        {
          "internalType": "uint256",
          "name": "sent",
          "type": "uint256"
        }
      ],
      "name": "InsufficientEthPayment",
      "type": "error"
    },
    {
      "inputs": [
        {
          "internalType": "uint256",
          "name": "required",
          "type": "uint256"
        },
        {
          "internalType": "uint256",
          "name": "sent",
          "type": "uint256"
        }
      ],
      "name": "InsufficientFee",
      "type": "error"
    },
    {
      "inputs": [],
      "name": "InvalidEthPrice",
      "type": "error"
    },
    {
      "inputs": [
        {
          "internalType": "uint256",
          "name": "minFee",
          "type": "uint256"
        },
        {
          "internalType": "uint256",
          "name": "fee",
          "type": "uint256"
        }
      ],
      "name": "InvalidFee",
      "type": "error"
    },
    {
      "inputs": [],
      "name": "NotExpired",
      "type": "error"
    },
    {
      "inputs": [
        {
          "internalType": "address",
          "name": "owner",
          "type": "address"
        }
      ],
      "name": "OwnableInvalidOwner",
      "type": "error"
    },
    {
      "inputs": [
        {
          "internalType": "address",
          "name": "account",
          "type": "address"
        }
      ],
      "name": "OwnableUnauthorizedAccount",
      "type": "error"
    },
    {
      "inputs": [],
      "name": "PotNotActive",
      "type": "error"
    },
    {
      "inputs": [],
      "name": "PythNotConfigured",
      "type": "error"
    },
    {
      "inputs": [],
      "name": "ReentrancyGuardReentrantCall",
      "type": "error"
    },
    {
      "inputs": [
        {
          "internalType": "address",
          "name": "token",
          "type": "address"
        }
      ],
      "name": "SafeERC20FailedOperation",
      "type": "error"
    },
    {
      "inputs": [],
      "name": "Unauthorized",
      "type": "error"
    },
    {
      "anonymous": false,
      "inputs": [
        {
          "indexed": true,
          "internalType": "address",
          "name": "previousOwner",
          "type": "address"
        },
        {
          "indexed": true,
          "internalType": "address",
          "name": "newOwner",
          "type": "address"
        }
      ],
      "name": "OwnershipTransferred",
      "type": "event"
    },
    {
      "anonymous": false,
      "inputs": [
        {
          "indexed": true,
          "internalType": "uint256",
          "name": "attemptId",
          "type": "uint256"
        },
        {
          "indexed": true,
          "internalType": "uint256",
          "name": "potId",
          "type": "uint256"
        },
        {
          "indexed": true,
          "internalType": "address",
          "name": "hunter",
          "type": "address"
        },
        {
          "indexed": false,
          "internalType": "uint256",
          "name": "timestamp",
          "type": "uint256"
        }
      ],
      "name": "PotAttempted",
      "type": "event"
    },
    {
      "anonymous": false,
      "inputs": [
        {
          "indexed": true,
          "internalType": "uint256",
          "name": "id",
          "type": "uint256"
        },
        {
          "indexed": true,
          "internalType": "address",
          "name": "creator",
          "type": "address"
        },
        {
          "indexed": false,
          "internalType": "uint256",
          "name": "timestamp",
          "type": "uint256"
        }
      ],
      "name": "PotCreated",
      "type": "event"
    },
    {
      "anonymous": false,
      "inputs": [
        {
          "indexed": true,
          "internalType": "uint256",
          "name": "potId",
          "type": "uint256"
        },
        {
          "indexed": true,
          "internalType": "address",
          "name": "creator",
          "type": "address"
        },
        {
          "indexed": false,
          "internalType": "uint256",
          "name": "timestamp",
          "type": "uint256"
        }
      ],
      "name": "PotExpired",
      "type": "event"
    },
    {
      "anonymous": false,
      "inputs": [
        {
          "indexed": true,
          "internalType": "uint256",
          "name": "attemptId",
          "type": "uint256"
        },
        {
          "indexed": true,
          "internalType": "address",
          "name": "hunter",
          "type": "address"
        },
        {
          "indexed": false,
          "internalType": "uint256",
          "name": "timestamp",
          "type": "uint256"
        }
      ],
      "name": "PotFailed",
      "type": "event"
    },
    {
      "anonymous": false,
      "inputs": [
        {
          "indexed": true,
          "internalType": "uint256",
          "name": "potId",
          "type": "uint256"
        },
        {
          "indexed": true,
          "internalType": "address",
          "name": "hunter",
          "type": "address"
        },
        {
          "indexed": false,
          "internalType": "uint256",
          "name": "timestamp",
          "type": "uint256"
        }
      ],
      "name": "PotSolved",
      "type": "event"
    },
    {
      "anonymous": false,
      "inputs": [
        {
          "indexed": true,
          "internalType": "bytes32",
          "name": "priceId",
          "type": "bytes32"
        },
        {
          "indexed": false,
          "internalType": "int64",
          "name": "price",
          "type": "int64"
        },
        {
          "indexed": false,
          "internalType": "uint64",
          "name": "publishTime",
          "type": "uint64"
        }
      ],
      "name": "PriceUpdated",
      "type": "event"
    },
    {
      "inputs": [],
      "name": "CREATOR_ENTRY_FEE_SHARE_PERCENT",
      "outputs": [
        {
          "internalType": "uint256",
          "name": "",
          "type": "uint256"
        }
      ],
      "stateMutability": "view",
      "type": "function"
    },
    {
      "inputs": [],
      "name": "DIFFICULTY_MOD",
      "outputs": [
        {
          "internalType": "uint256",
          "name": "",
          "type": "uint256"
        }
      ],
      "stateMutability": "view",
      "type": "function"
    },
    {
      "inputs": [],
      "name": "HUNTER_SHARE_PERCENT",
      "outputs": [
        {
          "internalType": "uint256",
          "name": "",
          "type": "uint256"
        }
      ],
      "stateMutability": "view",
      "type": "function"
    },
    {
      "inputs": [],
      "name": "MIN_FEE",
      "outputs": [
        {
          "internalType": "uint256",
          "name": "",
          "type": "uint256"
        }
      ],
      "stateMutability": "view",
      "type": "function"
    },
    {
      "inputs": [
        {
          "internalType": "address",
          "name": "owner",
          "type": "address"
        },
        {
          "internalType": "address",
          "name": "spender",
          "type": "address"
        }
      ],
      "name": "allowance",
      "outputs": [
        {
          "internalType": "uint256",
          "name": "",
          "type": "uint256"
        }
      ],
      "stateMutability": "view",
      "type": "function"
    },
    {
      "inputs": [
        {
          "internalType": "address",
          "name": "spender",
          "type": "address"
        },
        {
          "internalType": "uint256",
          "name": "amount",
          "type": "uint256"
        }
      ],
      "name": "approve",
      "outputs": [
        {
          "internalType": "bool",
          "name": "",
          "type": "bool"
        }
      ],
      "stateMutability": "nonpayable",
      "type": "function"
    },
    {
      "inputs": [
        {
          "internalType": "uint256",
          "name": "attemptId",
          "type": "uint256"
        },
        {
          "internalType": "bool",
          "name": "status",
          "type": "bool"
        }
      ],
      "name": "attemptCompleted",
      "outputs": [],
      "stateMutability": "nonpayable",
      "type": "function"
    },
    {
      "inputs": [
        {
          "internalType": "uint256",
          "name": "potId",
          "type": "uint256"
        }
      ],
      "name": "attemptPot",
      "outputs": [
        {
          "internalType": "uint256",
          "name": "",
          "type": "uint256"
        }
      ],
      "stateMutability": "payable",
      "type": "function"
    },
    {
      "inputs": [
        {
          "internalType": "uint256",
          "name": "",
          "type": "uint256"
        }
      ],
      "name": "attempts",
      "outputs": [
        {
          "internalType": "uint256",
          "name": "id",
          "type": "uint256"
        },
        {
          "internalType": "uint256",
          "name": "potId",
          "type": "uint256"
        },
        {
          "internalType": "address",
          "name": "hunter",
          "type": "address"
        },
        {
          "internalType": "uint256",
          "name": "expiresAt",
          "type": "uint256"
        },
        {
          "internalType": "uint256",
          "name": "difficulty",
          "type": "uint256"
        },
        {
          "internalType": "bool",
          "name": "isCompleted",
          "type": "bool"
        }
      ],
      "stateMutability": "view",
      "type": "function"
    },
    {
      "inputs": [
        {
          "internalType": "address",
          "name": "account",
          "type": "address"
        }
      ],
      "name": "balanceOf",
      "outputs": [
        {
          "internalType": "uint256",
          "name": "",
          "type": "uint256"
        }
      ],
      "stateMutability": "view",
      "type": "function"
    },
    {
      "inputs": [
        {
          "internalType": "uint256",
          "name": "amount",
          "type": "uint256"
        },
        {
          "internalType": "uint256",
          "name": "durationSeconds",
          "type": "uint256"
        },
        {
          "internalType": "uint256",
          "name": "fee",
          "type": "uint256"
        },
        {
          "internalType": "address",
          "name": "oneFaAddress",
          "type": "address"
        }
      ],
      "name": "createPot",
      "outputs": [
        {
          "internalType": "uint256",
          "name": "",
          "type": "uint256"
        }
      ],
      "stateMutability": "nonpayable",
      "type": "function"
    },
    {
      "inputs": [],
      "name": "decimals",
      "outputs": [
        {
          "internalType": "uint8",
          "name": "",
          "type": "uint8"
        }
      ],
      "stateMutability": "view",
      "type": "function"
    },
    {
      "inputs": [],
      "name": "emergencyWithdrawEth",
      "outputs": [],
      "stateMutability": "nonpayable",
      "type": "function"
    },
    {
      "inputs": [],
      "name": "ethUsdPriceId",
      "outputs": [
        {
          "internalType": "bytes32",
          "name": "",
          "type": "bytes32"
        }
      ],
      "stateMutability": "view",
      "type": "function"
    },
    {
      "inputs": [
        {
          "internalType": "uint256",
          "name": "potId",
          "type": "uint256"
        }
      ],
      "name": "expirePot",
      "outputs": [],
      "stateMutability": "nonpayable",
      "type": "function"
    },
    {
      "inputs": [],
      "name": "getActivePots",
      "outputs": [
        {
          "internalType": "uint256[]",
          "name": "",
          "type": "uint256[]"
        }
      ],
      "stateMutability": "view",
      "type": "function"
    },
    {
      "inputs": [
        {
          "internalType": "uint256",
          "name": "attemptId",
          "type": "uint256"
        }
      ],
      "name": "getAttempt",
      "outputs": [
        {
          "components": [
            {
              "internalType": "uint256",
              "name": "id",
              "type": "uint256"
            },
            {
              "internalType": "uint256",
              "name": "potId",
              "type": "uint256"
            },
            {
              "internalType": "address",
              "name": "hunter",
              "type": "address"
            },
            {
              "internalType": "uint256",
              "name": "expiresAt",
              "type": "uint256"
            },
            {
              "internalType": "uint256",
              "name": "difficulty",
              "type": "uint256"
            },
            {
              "internalType": "bool",
              "name": "isCompleted",
              "type": "bool"
            }
          ],
          "internalType": "struct MoneyPot.Attempt",
          "name": "",
          "type": "tuple"
        }
      ],
      "stateMutability": "view",
      "type": "function"
    },
    {
      "inputs": [
        {
          "internalType": "address",
          "name": "account",
          "type": "address"
        }
      ],
      "name": "getBalance",
      "outputs": [
        {
          "internalType": "uint256",
          "name": "",
          "type": "uint256"
        }
      ],
      "stateMutability": "view",
      "type": "function"
    },
    {
      "inputs": [],
      "name": "getCurrentPriceInUsd",
      "outputs": [
        {
          "internalType": "int64",
          "name": "",
          "type": "int64"
        },
        {
          "internalType": "int32",
          "name": "",
          "type": "int32"
        }
      ],
      "stateMutability": "view",
      "type": "function"
    },
    {
      "inputs": [
        {
          "internalType": "uint256",
          "name": "potId",
          "type": "uint256"
        }
      ],
      "name": "getPot",
      "outputs": [
        {
          "components": [
            {
              "internalType": "uint256",
              "name": "id",
              "type": "uint256"
            },
            {
              "internalType": "address",
              "name": "creator",
              "type": "address"
            },
            {
              "internalType": "uint256",
              "name": "totalAmount",
              "type": "uint256"
            },
            {
              "internalType": "uint256",
              "name": "fee",
              "type": "uint256"
            },
            {
              "internalType": "uint256",
              "name": "createdAt",
              "type": "uint256"
            },
            {
              "internalType": "uint256",
              "name": "expiresAt",
              "type": "uint256"
            },
            {
              "internalType": "bool",
              "name": "isActive",
              "type": "bool"
            },
            {
              "internalType": "uint256",
              "name": "attemptsCount",
              "type": "uint256"
            },
            {
              "internalType": "address",
              "name": "oneFaAddress",
              "type": "address"
            }
          ],
          "internalType": "struct MoneyPot.MoneyPotData",
          "name": "",
          "type": "tuple"
        }
      ],
      "stateMutability": "view",
      "type": "function"
    },
    {
      "inputs": [],
      "name": "getPots",
      "outputs": [
        {
          "internalType": "uint256[]",
          "name": "",
          "type": "uint256[]"
        }
      ],
      "stateMutability": "view",
      "type": "function"
    },
    {
      "inputs": [],
      "name": "getTokenAddress",
      "outputs": [
        {
          "internalType": "address",
          "name": "",
          "type": "address"
        }
      ],
      "stateMutability": "view",
      "type": "function"
    },
    {
      "inputs": [
        {
          "internalType": "contract IERC20Metadata",
          "name": "_token",
          "type": "address"
        },
        {
          "internalType": "address",
          "name": "_verifier",
          "type": "address"
        }
      ],
      "name": "initialize",
      "outputs": [],
      "stateMutability": "nonpayable",
      "type": "function"
    },
    {
      "inputs": [
        {
          "internalType": "address",
          "name": "_pythInstance",
          "type": "address"
        },
        {
          "internalType": "bytes32",
          "name": "_priceId",
          "type": "bytes32"
        }
      ],
      "name": "initializePyth",
      "outputs": [],
      "stateMutability": "nonpayable",
      "type": "function"
    },
    {
      "inputs": [
        {
          "internalType": "contract IERC20Metadata",
          "name": "_underlying",
          "type": "address"
        }
      ],
      "name": "initializeToken",
      "outputs": [],
      "stateMutability": "nonpayable",
      "type": "function"
    },
    {
      "inputs": [],
      "name": "name",
      "outputs": [
        {
          "internalType": "string",
          "name": "",
          "type": "string"
        }
      ],
      "stateMutability": "view",
      "type": "function"
    },
    {
      "inputs": [],
      "name": "nextAttemptId",
      "outputs": [
        {
          "internalType": "uint256",
          "name": "",
          "type": "uint256"
        }
      ],
      "stateMutability": "view",
      "type": "function"
    },
    {
      "inputs": [],
      "name": "nextPotId",
      "outputs": [
        {
          "internalType": "uint256",
          "name": "",
          "type": "uint256"
        }
      ],
      "stateMutability": "view",
      "type": "function"
    },
    {
      "inputs": [],
      "name": "owner",
      "outputs": [
        {
          "internalType": "address",
          "name": "",
          "type": "address"
        }
      ],
      "stateMutability": "view",
      "type": "function"
    },
    {
      "inputs": [
        {
          "internalType": "uint256",
          "name": "",
          "type": "uint256"
        }
      ],
      "name": "pots",
      "outputs": [
        {
          "internalType": "uint256",
          "name": "id",
          "type": "uint256"
        },
        {
          "internalType": "address",
          "name": "creator",
          "type": "address"
        },
        {
          "internalType": "uint256",
          "name": "totalAmount",
          "type": "uint256"
        },
        {
          "internalType": "uint256",
          "name": "fee",
          "type": "uint256"
        },
        {
          "internalType": "uint256",
          "name": "createdAt",
          "type": "uint256"
        },
        {
          "internalType": "uint256",
          "name": "expiresAt",
          "type": "uint256"
        },
        {
          "internalType": "bool",
          "name": "isActive",
          "type": "bool"
        },
        {
          "internalType": "uint256",
          "name": "attemptsCount",
          "type": "uint256"
        },
        {
          "internalType": "address",
          "name": "oneFaAddress",
          "type": "address"
        }
      ],
      "stateMutability": "view",
      "type": "function"
    },
    {
      "inputs": [],
      "name": "pythConfigured",
      "outputs": [
        {
          "internalType": "bool",
          "name": "",
          "type": "bool"
        }
      ],
      "stateMutability": "view",
      "type": "function"
    },
    {
      "inputs": [],
      "name": "pythInstance",
      "outputs": [
        {
          "internalType": "contract IPyth",
          "name": "",
          "type": "address"
        }
      ],
      "stateMutability": "view",
      "type": "function"
    },
    {
      "inputs": [],
      "name": "renounceOwnership",
      "outputs": [],
      "stateMutability": "nonpayable",
      "type": "function"
    },
    {
      "inputs": [],
      "name": "symbol",
      "outputs": [
        {
          "internalType": "string",
          "name": "",
          "type": "string"
        }
      ],
      "stateMutability": "view",
      "type": "function"
    },
    {
      "inputs": [],
      "name": "totalSupply",
      "outputs": [
        {
          "internalType": "uint256",
          "name": "",
          "type": "uint256"
        }
      ],
      "stateMutability": "view",
      "type": "function"
    },
    {
      "inputs": [
        {
          "internalType": "address",
          "name": "to",
          "type": "address"
        },
        {
          "internalType": "uint256",
          "name": "amount",
          "type": "uint256"
        }
      ],
      "name": "transfer",
      "outputs": [
        {
          "internalType": "bool",
          "name": "",
          "type": "bool"
        }
      ],
      "stateMutability": "nonpayable",
      "type": "function"
    },
    {
      "inputs": [
        {
          "internalType": "address",
          "name": "from",
          "type": "address"
        },
        {
          "internalType": "address",
          "name": "to",
          "type": "address"
        },
        {
          "internalType": "uint256",
          "name": "amount",
          "type": "uint256"
        }
      ],
      "name": "transferFrom",
      "outputs": [
        {
          "internalType": "bool",
          "name": "",
          "type": "bool"
        }
      ],
      "stateMutability": "nonpayable",
      "type": "function"
    },
    {
      "inputs": [
        {
          "internalType": "address",
          "name": "newOwner",
          "type": "address"
        }
      ],
      "name": "transferOwnership",
      "outputs": [],
      "stateMutability": "nonpayable",
      "type": "function"
    },
    {
      "inputs": [],
      "name": "underlying",
      "outputs": [
        {
          "internalType": "contract IERC20Metadata",
          "name": "",
          "type": "address"
        }
      ],
      "stateMutability": "view",
      "type": "function"
    },
    {
      "inputs": [
        {
          "internalType": "bytes[]",
          "name": "priceUpdateData",
          "type": "bytes[]"
        },
        {
          "internalType": "bytes32",
          "name": "priceId",
          "type": "bytes32"
        }
      ],
      "name": "updateAndGetPrice",
      "outputs": [
        {
          "internalType": "int64",
          "name": "price",
          "type": "int64"
        },
        {
          "internalType": "uint64",
          "name": "publishTime",
          "type": "uint64"
        }
      ],
      "stateMutability": "payable",
      "type": "function"
    },
    {
      "inputs": [
        {
          "internalType": "address",
          "name": "_verifier",
          "type": "address"
        }
      ],
      "name": "updateVerifier",
      "outputs": [],
      "stateMutability": "nonpayable",
      "type": "function"
    },
    {
      "inputs": [],
      "name": "verifier",
      "outputs": [
        {
          "internalType": "address",
          "name": "",
          "type": "address"
        }
      ],
      "stateMutability": "view",
      "type": "function"
    },
    {
      "inputs": [
        {
          "internalType": "uint256",
          "name": "amount",
          "type": "uint256"
        }
      ],
      "name": "withdrawEth",
      "outputs": [],
      "stateMutability": "nonpayable",
      "type": "function"
    }
  ],
  "bytecode": "0x6080604052348015600e575f5ffd5b503380603357604051631e4fbdf760e01b81525f600482015260240160405180910390fd5b603a816043565b50600180556092565b5f80546001600160a01b038381166001600160a01b0319831681178455604051919092169283917f8be0079c531659141344cd1fd0a4f28419497f9722a3daafe3b4186f6b6457e09190a35050565b6127cc8061009f5f395ff3fe608060405260043610610254575f3560e01c80636a18ec491161013f578063a9059cbb116100b3578063c661b7f411610078578063c661b7f41461080f578063da2dfd1114610840578063dd62ed3e14610855578063ee10fa3114610874578063f2fde38b146108a9578063f8b2cb4f146108c8575f5ffd5b8063a9059cbb146106d1578063bdd10f30146106f0578063c2dd658e1461070f578063c311d0491461072e578063c3c3df4f1461074d575f5ffd5b806376c7a3c71161010457806376c7a3c71461063b5780638da5cb5b1461064f57806395d89b411461066b57806397fc007c1461067f5780639c6076e11461069e578063a128bd4c146106bd575f5ffd5b80636a18ec49146105c05780636a8896b6146105d55780636f307dc3146105e957806370a0823114610608578063715018a614610627575f5ffd5b80632e411f26116101d65780634af02f6c1161019b5780634af02f6c146105255780634af6ac67146105445780635348361d146105595780635b4fa76a1461056d5780635e8d89e51461058c57806360322bb0146105a0575f5ffd5b80632e411f26146103c4578063313ce567146103d757806342b343a3146103fd57806347bfec9e14610495578063485cc95514610506575f5ffd5b8063234a6ed81161021c578063234a6ed81461031a57806323b872dd1461033957806328d3ad3f146103585780632a454c66146103845780632b7ac3f3146103a5575f5ffd5b806306fdde0314610258578063095ea7b31461028257806310fe9ae8146102b157806318160ddd146102e257806322019a1c14610304575b5f5ffd5b348015610263575f5ffd5b5061026c6108e7565b6040516102799190612069565b60405180910390f35b34801561028d575f5ffd5b506102a161029c3660046120b2565b61095a565b6040519015158152602001610279565b3480156102bc575f5ffd5b506002546001600160a01b03165b6040516001600160a01b039091168152602001610279565b3480156102ed575f5ffd5b506102f66109d7565b604051908152602001610279565b34801561030f575f5ffd5b50610318610a42565b005b348015610325575f5ffd5b506103186103343660046120dc565b610a97565b348015610344575f5ffd5b506102a16103533660046120f7565b610b15565b348015610363575f5ffd5b50610377610372366004612135565b610b49565b604051610279919061214c565b34801561038f575f5ffd5b50610398610c2a565b60405161027991906121cb565b3480156103b0575f5ffd5b506005546102ca906001600160a01b031681565b6102f66103d2366004612135565b610d72565b3480156103e2575f5ffd5b506103eb611137565b60405160ff9091168152602001610279565b348015610408575f5ffd5b50610458610417366004612135565b60096020525f9081526040902080546001820154600283015460038401546004850154600590950154939492936001600160a01b0390921692909160ff1686565b6040805196875260208701959095526001600160a01b039093169385019390935260608401526080830191909152151560a082015260c001610279565b3480156104a0575f5ffd5b506104b46104af366004612135565b6111a2565b604051610279919081518152602080830151908201526040808301516001600160a01b031690820152606080830151908201526080808301519082015260a09182015115159181019190915260c00190565b348015610511575f5ffd5b5061031861052036600461220d565b611246565b348015610530575f5ffd5b5061031861053f366004612251565b61127a565b34801561054f575f5ffd5b506102f660065481565b348015610564575f5ffd5b506102f6603281565b348015610578575f5ffd5b50610318610587366004612135565b611462565b348015610597575f5ffd5b506102f6600981565b3480156105ab575f5ffd5b506004546102a190600160a01b900460ff1681565b3480156105cb575f5ffd5b506102f660035481565b3480156105e0575f5ffd5b50610398611542565b3480156105f4575f5ffd5b506002546102ca906001600160a01b031681565b348015610613575f5ffd5b506102f66106223660046120dc565b611598565b348015610632575f5ffd5b50610318611605565b348015610646575f5ffd5b506102f6600181565b34801561065a575f5ffd5b505f546001600160a01b03166102ca565b348015610676575f5ffd5b5061026c611618565b34801561068a575f5ffd5b506103186106993660046120dc565b61165f565b3480156106a9575f5ffd5b506102f66106b8366004612274565b6116d2565b3480156106c8575f5ffd5b506102f6605a81565b3480156106dc575f5ffd5b506102a16106eb3660046120b2565b6118a7565b3480156106fb575f5ffd5b5061031861070a3660046120b2565b6118d4565b34801561071a575f5ffd5b506004546102ca906001600160a01b031681565b348015610739575f5ffd5b50610318610748366004612135565b61191f565b348015610758575f5ffd5b506107c1610767366004612135565b600860208190525f918252604090912080546001820154600283015460038401546004850154600586015460068701546007880154979098015495976001600160a01b0395861697949693959294919360ff909116921689565b60408051998a526001600160a01b0398891660208b01528901969096526060880194909452608087019290925260a0860152151560c085015260e08401521661010082015261012001610279565b34801561081a575f5ffd5b50610823611987565b6040805160079390930b835260039190910b602083015201610279565b34801561084b575f5ffd5b506102f660075481565b348015610860575f5ffd5b506102f661086f36600461220d565b611a35565b6108876108823660046122b2565b611aa9565b6040805160079390930b83526001600160401b03909116602083015201610279565b3480156108b4575f5ffd5b506103186108c33660046120dc565b611ce8565b3480156108d3575f5ffd5b506102f66108e23660046120dc565b611d22565b600254604080516306fdde0360e01b815290516060926001600160a01b0316916306fdde03916004808301925f9291908290030181865afa15801561092e573d5f5f3e3d5ffd5b505050506040513d5f823e601f3d908101601f191682016040526109559190810190612391565b905090565b60025460405163095ea7b360e01b81526001600160a01b038481166004830152602482018490525f92169063095ea7b3906044016020604051808303815f875af11580156109aa573d5f5f3e3d5ffd5b505050506040513d601f19601f820116820180604052508101906109ce9190612423565b90505b92915050565b600254604080516318160ddd60e01b815290515f926001600160a01b0316916318160ddd9160048083019260209291908290030181865afa158015610a1e573d5f5f3e3d5ffd5b505050506040513d601f19601f82011682018060405250810190610955919061243e565b610a4a611d50565b478015610a94575f546001600160a01b03165b6001600160a01b03166108fc8290811502906040515f60405180830381858888f19350505050158015610a92573d5f5f3e3d5ffd5b505b50565b610a9f611d50565b6002546001600160a01b031615610af35760405162461bcd60e51b8152602060048201526013602482015272105b1c9958591e481a5b9a5d1a585b1a5e9959606a1b60448201526064015b60405180910390fd5b600280546001600160a01b0319166001600160a01b0392909216919091179055565b5f610b1e611d7c565b600254610b36906001600160a01b0316858585611da6565b506001610b4260018055565b9392505050565b610ba36040518061012001604052805f81526020015f6001600160a01b031681526020015f81526020015f81526020015f81526020015f81526020015f151581526020015f81526020015f6001600160a01b031681525090565b505f908152600860208181526040928390208351610120810185528154815260018201546001600160a01b03908116938201939093526002820154948101949094526003810154606085015260048101546080850152600581015460a0850152600681015460ff16151560c0850152600781015460e0850152909101541661010082015290565b60605f805b600a54811015610c8b5760085f600a8381548110610c4f57610c4f612455565b5f918252602080832090910154835282019290925260400190206006015460ff1615610c835781610c7f8161247d565b9250505b600101610c2f565b505f816001600160401b03811115610ca557610ca5612325565b604051908082528060200260200182016040528015610cce578160200160208202803683370190505b5090505f805b600a54811015610d695760085f600a8381548110610cf457610cf4612455565b5f918252602080832090910154835282019290925260400190206006015460ff1615610d6157600a8181548110610d2d57610d2d612455565b905f5260205f200154838380610d429061247d565b945081518110610d5457610d54612455565b6020026020010181815250505b600101610cd4565b50909392505050565b5f610d7b611d7c565b5f828152600860205260409020600681015460ff16610dad57604051633c8555d960e11b815260040160405180910390fd5b80600501544210610dd15760405163141d1aef60e11b815260040160405180910390fd5b60038101545f6064610de4603284612495565b610dee91906124c0565b90505f610dfb82846124d3565b90503415610fb757600454600160a01b900460ff16610e2d576040516344cbad8560e01b815260040160405180910390fd5b5f306001600160a01b031663313ce5676040518163ffffffff1660e01b8152600401602060405180830381865afa158015610e6a573d5f5f3e3d5ffd5b505050506040513d601f19601f82011682018060405250810190610e8e91906124e6565b610e99906012612506565b610ea490600a6125fa565b610eae9085612495565b90505f610eba82611e13565b905080341015610ee6576040516310b78b1560e01b815260048101829052346024820152604401610aea565b80341115610f2357336108fc610efc83346124d3565b6040518115909202915f818181858888f19350505050158015610f21573d5f5f3e3d5ffd5b505b5f6064610f31603284612495565b610f3b91906124c0565b90505f610f4882846124d3565b60018901546040519192506001600160a01b03169083156108fc029084905f818181858888f19350505050158015610f82573d5f5f3e3d5ffd5b50604051309082156108fc029083905f818181858888f19350505050158015610fad573d5f5f3e3d5ffd5b5050505050610ff0565b6001840154600254610fd8916001600160a01b039182169133911685611da6565b600254610ff0906001600160a01b0316333084611da6565b5f600985600701546110029190612608565b61100d90600361261b565b6007860180549192505f6110208361247d565b9091555050600780545f91826110358361247d565b9190505590506040518060c00160405280828152602001898152602001336001600160a01b031681526020014261012c61106f919061261b565b815260208082018590525f60409283018190528481526009825282902083518155838201516001820155838301516002820180546001600160a01b0319166001600160a01b03909216919091179055606084015160038201556080840151600482015560a0909301516005909301805460ff1916931515939093179092555142815233918a9184917fb90c27c76196956b18f7c45a7c71853ab24e4da908f02d74d0aeed97a8d369ab910160405180910390a49550505050505061113260018055565b919050565b6002546040805163313ce56760e01b815290515f926001600160a01b03169163313ce5679160048083019260209291908290030181865afa15801561117e573d5f5f3e3d5ffd5b505050506040513d601f19601f8201168201806040525081019061095591906124e6565b6111e06040518060c001604052805f81526020015f81526020015f6001600160a01b031681526020015f81526020015f81526020015f151581525090565b505f90815260096020908152604091829020825160c0810184528154815260018201549281019290925260028101546001600160a01b031692820192909252600382015460608201526004820154608082015260059091015460ff16151560a082015290565b61124e611d50565b61125782610a97565b600580546001600160a01b0319166001600160a01b039290921691909117905550565b611282611d7c565b6005546001600160a01b031633146112ac576040516282b42960e81b815260040160405180910390fd5b5f828152600960209081526040808320600181015484526008909252909120600681015460ff166112f057604051633c8555d960e11b815260040160405180910390fd5b806005015442106113145760405163141d1aef60e11b815260040160405180910390fd5b8160030154421061133857604051630350d87360e01b815260040160405180910390fd5b600582015460ff161561135e576040516303216c4560e61b815260040160405180910390fd5b60058201805460ff1916600117905582156114105760068101805460ff1916905560028101545f9060649061139590605a90612495565b61139f91906124c0565b60028085015490549192506113c1916001600160a01b03908116911683611f78565b600283015460018401546040514281526001600160a01b03909216917ff1287295bd091db1377c2cb22ff6fbdadb12d5d0b29617d536c87cc1c36a16fe9060200160405180910390a350611457565b60028201546040514281526001600160a01b039091169085907f37ca40d98896f541f571cbd03cce23dc1f58d70e76716c231ce0513ae429624e9060200160405180910390a35b5050610a9260018055565b61146a611d7c565b5f818152600860205260409020600681015460ff1661149c57604051633c8555d960e11b815260040160405180910390fd5b80600501544210156114c15760405163d0404f8560e01b815260040160405180910390fd5b60068101805460ff19169055600181015460028083015490546114f2926001600160a01b0391821692911690611f78565b60018101546040514281526001600160a01b039091169083907fe9329c07e095ee411f7af93fd90be38fd4cfe35687d55bfc1801a8579267146f9060200160405180910390a350610a9460018055565b6060600a80548060200260200160405190810160405280929190818152602001828054801561158e57602002820191905f5260205f20905b81548152602001906001019080831161157a575b5050505050905090565b6002546040516370a0823160e01b81526001600160a01b0383811660048301525f9216906370a08231906024015b602060405180830381865afa1580156115e1573d5f5f3e3d5ffd5b505050506040513d601f19601f820116820180604052508101906109d1919061243e565b61160d611d50565b6116165f611fae565b565b600254604080516395d89b4160e01b815290516060926001600160a01b0316916395d89b41916004808301925f9291908290030181865afa15801561092e573d5f5f3e3d5ffd5b611667611d50565b6001600160a01b0381166116b05760405162461bcd60e51b815260206004820152601060248201526f24b73b30b634b2103b32b934b334b2b960811b6044820152606401610aea565b600580546001600160a01b0319166001600160a01b0392909216919091179055565b5f6116db611d7c565b848311806116e95750600183105b1561171157604051631e0bd6c160e31b81526001600482015260248101849052604401610aea565b600680545f91826117218361247d565b919050559050604051806101200160405280828152602001336001600160a01b031681526020018781526020018581526020014281526020018642611766919061261b565b8152600160208083018290525f60408085018290526001600160a01b03808a166060968701528783526008808552828420885181559488015185870180549184166001600160a01b0319928316179055928801516002808701919091559688015160038601556080880151600486015560a0880151600586015560c088015160068601805491151560ff1990921691909117905560e08801516007860155610100909701519390960180549387169390911692909217909155600a8054928301815590527fc65a7bb8d6351c1cf70c95a316cc6a92839c986682d98bc35f958f4883f9d2a8018390555461185d9116333089611da6565b604051428152339082907f105e89af34e210616abcb0ffda64ce2a3408643b8d2f2db8f72f004c01cd38d29060200160405180910390a3905061189f60018055565b949350505050565b5f6118b0611d7c565b6002546118c8906001600160a01b0316338585611da6565b5060016109d160018055565b6001600160a01b0382161561190e576004805460038390556001600160a81b0319166001600160a01b03841617600160a01b179055610a92565b6004805460ff60a01b191690555050565b611927611d50565b804710156119775760405162461bcd60e51b815260206004820152601860248201527f496e73756666696369656e74204554482062616c616e636500000000000000006044820152606401610aea565b5f546001600160a01b0316610a5d565b6004545f908190600160a01b900460ff166119b5576040516344cbad8560e01b815260040160405180910390fd5b600480546003546040516396834ad360e01b8152928301525f916001600160a01b03909116906396834ad390602401608060405180830381865afa1580156119ff573d5f5f3e3d5ffd5b505050506040513d601f19601f82011682018060405250810190611a23919061262e565b80516040909101519094909350915050565b600254604051636eb1769f60e11b81526001600160a01b03848116600483015283811660248301525f92169063dd62ed3e90604401602060405180830381865afa158015611a85573d5f5f3e3d5ffd5b505050506040513d601f19601f820116820180604052508101906109ce919061243e565b6004545f908190600160a01b900460ff16611ad7576040516344cbad8560e01b815260040160405180910390fd5b6004805460405163d47eed4560e01b81525f926001600160a01b039092169163d47eed4591611b0a918a918a91016126cc565b602060405180830381865afa158015611b25573d5f5f3e3d5ffd5b505050506040513d601f19601f82011682018060405250810190611b49919061243e565b905080341015611b755760405163a458261b60e01b815260048101829052346024820152604401610aea565b60048054604051631df3cbc560e31b81526001600160a01b039091169163ef9e5e28918491611ba8918b918b91016126cc565b5f604051808303818588803b158015611bbf575f5ffd5b505af1158015611bd1573d5f5f3e3d5ffd5b5050600480546040516396834ad360e01b81529182018990525f94506001600160a01b031692506396834ad39150602401608060405180830381865afa158015611c1d573d5f5f3e3d5ffd5b505050506040513d601f19601f82011682018060405250810190611c41919061262e565b805160608201516040805160079390930b83526001600160401b03909116602083015291925086917f4407ea639dccc6951feab9ab176063f7cd6a4379b97b58b421844522121d6472910160405180910390a281341115611cd157336108fc611caa84346124d3565b6040518115909202915f818181858888f19350505050158015611ccf573d5f5f3e3d5ffd5b505b80516060909101519093509150505b935093915050565b611cf0611d50565b6001600160a01b038116611d1957604051631e4fbdf760e01b81525f6004820152602401610aea565b610a9481611fae565b6040516370a0823160e01b81526001600160a01b03821660048201525f9030906370a08231906024016115c6565b5f546001600160a01b031633146116165760405163118cdaa760e01b8152336004820152602401610aea565b600260015403611d9f57604051633ee5aeb560e01b815260040160405180910390fd5b6002600155565b6040516001600160a01b038481166024830152838116604483015260648201839052611e0d9186918216906323b872dd906084015b604051602081830303815290604052915060e01b6020820180516001600160e01b038381831617835250505050611ffd565b50505050565b6004545f90600160a01b900460ff16611e3f576040516344cbad8560e01b815260040160405180910390fd5b600480546003546040516396834ad360e01b8152928301525f916001600160a01b03909116906396834ad390602401608060405180830381865afa158015611e89573d5f5f3e3d5ffd5b505050506040513d601f19601f82011682018060405250810190611ead919061262e565b90505f815f015160070b13611ed5576040516359e3bc8d60e01b815260040160405180910390fd5b5f8390505f5f836040015160030b1215611f24578260400151611ef79061276a565b611f089063ffffffff16600a61278b565b8351611f1d91906001600160401b03166124c0565b9050611f52565b6040830151611f3a9063ffffffff16600a61278b565b8351611f4f91906001600160401b0316612495565b90505b80611f6583670de0b6b3a7640000612495565b611f6f91906124c0565b95945050505050565b6040516001600160a01b03838116602483015260448201839052611fa991859182169063a9059cbb90606401611ddb565b505050565b5f80546001600160a01b038381166001600160a01b0319831681178455604051919092169283917f8be0079c531659141344cd1fd0a4f28419497f9722a3daafe3b4186f6b6457e09190a35050565b5f5f60205f8451602086015f885af18061201c576040513d5f823e3d81fd5b50505f513d91508115612033578060011415612040565b6001600160a01b0384163b155b15611e0d57604051635274afe760e01b81526001600160a01b0385166004820152602401610aea565b602081525f82518060208401528060208501604085015e5f604082850101526040601f19601f83011684010191505092915050565b6001600160a01b0381168114610a94575f5ffd5b5f5f604083850312156120c3575f5ffd5b82356120ce8161209e565b946020939093013593505050565b5f602082840312156120ec575f5ffd5b8135610b428161209e565b5f5f5f60608486031215612109575f5ffd5b83356121148161209e565b925060208401356121248161209e565b929592945050506040919091013590565b5f60208284031215612145575f5ffd5b5035919050565b5f610120820190508251825260018060a01b03602084015116602083015260408301516040830152606083015160608301526080830151608083015260a083015160a083015260c0830151151560c083015260e083015160e08301526101008301516121c46101008401826001600160a01b03169052565b5092915050565b602080825282518282018190525f918401906040840190835b818110156122025783518352602093840193909201916001016121e4565b509095945050505050565b5f5f6040838503121561221e575f5ffd5b82356122298161209e565b915060208301356122398161209e565b809150509250929050565b8015158114610a94575f5ffd5b5f5f60408385031215612262575f5ffd5b82359150602083013561223981612244565b5f5f5f5f60808587031215612287575f5ffd5b84359350602085013592506040850135915060608501356122a78161209e565b939692955090935050565b5f5f5f604084860312156122c4575f5ffd5b83356001600160401b038111156122d9575f5ffd5b8401601f810186136122e9575f5ffd5b80356001600160401b038111156122fe575f5ffd5b8660208260051b8401011115612312575f5ffd5b6020918201979096509401359392505050565b634e487b7160e01b5f52604160045260245ffd5b604051608081016001600160401b038111828210171561235b5761235b612325565b60405290565b604051601f8201601f191681016001600160401b038111828210171561238957612389612325565b604052919050565b5f602082840312156123a1575f5ffd5b81516001600160401b038111156123b6575f5ffd5b8201601f810184136123c6575f5ffd5b80516001600160401b038111156123df576123df612325565b6123f2601f8201601f1916602001612361565b818152856020838501011115612406575f5ffd5b8160208401602083015e5f91810160200191909152949350505050565b5f60208284031215612433575f5ffd5b8151610b4281612244565b5f6020828403121561244e575f5ffd5b5051919050565b634e487b7160e01b5f52603260045260245ffd5b634e487b7160e01b5f52601160045260245ffd5b5f6001820161248e5761248e612469565b5060010190565b80820281158282048414176109d1576109d1612469565b634e487b7160e01b5f52601260045260245ffd5b5f826124ce576124ce6124ac565b500490565b818103818111156109d1576109d1612469565b5f602082840312156124f6575f5ffd5b815160ff81168114610b42575f5ffd5b60ff82811682821603908111156109d1576109d1612469565b6001815b6001841115611ce05780850481111561253e5761253e612469565b600184161561254c57908102905b60019390931c928002612523565b5f82612568575060016109d1565b8161257457505f6109d1565b816001811461258a5760028114612594576125b0565b60019150506109d1565b60ff8411156125a5576125a5612469565b50506001821b6109d1565b5060208310610133831016604e8410600b84101617156125d3575081810a6109d1565b6125df5f19848461251f565b805f19048211156125f2576125f2612469565b029392505050565b5f6109ce60ff84168361255a565b5f82612616576126166124ac565b500690565b808201808211156109d1576109d1612469565b5f608082840312801561263f575f5ffd5b50612648612339565b82518060070b8114612658575f5ffd5b815260208301516001600160401b0381168114612673575f5ffd5b60208201526040830151600381900b811461268c575f5ffd5b60408201526060928301519281019290925250919050565b81835281816020850137505f828201602090810191909152601f909101601f19169091010190565b602080825281018290525f6040600584901b830181019083018583601e1936839003015b8782101561275d57868503603f19018452823581811261270e575f5ffd5b89016020810190356001600160401b03811115612729575f5ffd5b803603821315612737575f5ffd5b6127428782846126a4565b965050506020830192506020840193506001820191506126f0565b5092979650505050505050565b5f8160030b637fffffff19810361278357612783612469565b5f0392915050565b5f6109ce838361255a56fea2646970667358221220d9b028a8982b9cce08a10bcd07d29c4ddf68b6af79b48e0d9abc10d59e06da3364736f6c634300081c0033",
  "linkReferences": {},
  "deployedLinkReferences": {},
  "immutableReferences": {},
  "inputSourceName": "project/contracts/MoneyPot.sol",
  "buildInfoId": "solc-0_8_28-1ac7a65b96533bbb15be8dfa8a597a8498164b17"
}