{
  "_format": "hh-sol-artifact-1",
  "contractName": "MoneyPot",
  "sourceName": "contracts/moneypot/MoneyPot.sol",
  "abi": [
    {
      "inputs": [],
      "stateMutability": "nonpayable",
      "type": "constructor"
    },
    {
      "inputs": [],
      "name": "AttemptCompleted",
      "type": "error"
    },
    {
      "inputs": [],
      "name": "AttemptExpired",
      "type": "error"
    },
    {
      "inputs": [],
      "name": "ExpiredPot",
      "type": "error"
    },
    {
      "inputs": [],
      "name": "InvalidFee",
      "type": "error"
    },
    {
      "inputs": [],
      "name": "NotExpired",
      "type": "error"
    },
    {
      "inputs": [],
      "name": "PotNotActive",
      "type": "error"
    },
    {
      "inputs": [],
      "name": "Unauthorized",
      "type": "error"
    },
    {
      "anonymous": false,
      "inputs": [
        {
          "indexed": false,
          "internalType": "address",
          "name": "previousAdmin",
          "type": "address"
        },
        {
          "indexed": false,
          "internalType": "address",
          "name": "newAdmin",
          "type": "address"
        }
      ],
      "name": "AdminChanged",
      "type": "event"
    },
    {
      "anonymous": false,
      "inputs": [
        {
          "indexed": true,
          "internalType": "address",
          "name": "owner",
          "type": "address"
        },
        {
          "indexed": true,
          "internalType": "address",
          "name": "spender",
          "type": "address"
        },
        {
          "indexed": false,
          "internalType": "uint256",
          "name": "value",
          "type": "uint256"
        }
      ],
      "name": "Approval",
      "type": "event"
    },
    {
      "anonymous": false,
      "inputs": [
        {
          "indexed": true,
          "internalType": "address",
          "name": "beacon",
          "type": "address"
        }
      ],
      "name": "BeaconUpgraded",
      "type": "event"
    },
    {
      "anonymous": false,
      "inputs": [],
      "name": "EIP712DomainChanged",
      "type": "event"
    },
    {
      "anonymous": false,
      "inputs": [
        {
          "indexed": false,
          "internalType": "uint8",
          "name": "version",
          "type": "uint8"
        }
      ],
      "name": "Initialized",
      "type": "event"
    },
    {
      "anonymous": false,
      "inputs": [
        {
          "indexed": true,
          "internalType": "address",
          "name": "previousOwner",
          "type": "address"
        },
        {
          "indexed": true,
          "internalType": "address",
          "name": "newOwner",
          "type": "address"
        }
      ],
      "name": "OwnershipTransferred",
      "type": "event"
    },
    {
      "anonymous": false,
      "inputs": [
        {
          "indexed": false,
          "internalType": "address",
          "name": "account",
          "type": "address"
        }
      ],
      "name": "Paused",
      "type": "event"
    },
    {
      "anonymous": false,
      "inputs": [
        {
          "indexed": true,
          "internalType": "uint256",
          "name": "attemptId",
          "type": "uint256"
        },
        {
          "indexed": true,
          "internalType": "uint256",
          "name": "potId",
          "type": "uint256"
        },
        {
          "indexed": true,
          "internalType": "address",
          "name": "hunter",
          "type": "address"
        },
        {
          "indexed": false,
          "internalType": "uint256",
          "name": "timestamp",
          "type": "uint256"
        }
      ],
      "name": "PotAttempted",
      "type": "event"
    },
    {
      "anonymous": false,
      "inputs": [
        {
          "indexed": true,
          "internalType": "uint256",
          "name": "id",
          "type": "uint256"
        },
        {
          "indexed": true,
          "internalType": "address",
          "name": "creator",
          "type": "address"
        },
        {
          "indexed": false,
          "internalType": "uint256",
          "name": "timestamp",
          "type": "uint256"
        }
      ],
      "name": "PotCreated",
      "type": "event"
    },
    {
      "anonymous": false,
      "inputs": [
        {
          "indexed": true,
          "internalType": "uint256",
          "name": "potId",
          "type": "uint256"
        },
        {
          "indexed": true,
          "internalType": "address",
          "name": "creator",
          "type": "address"
        },
        {
          "indexed": false,
          "internalType": "uint256",
          "name": "timestamp",
          "type": "uint256"
        }
      ],
      "name": "PotExpired",
      "type": "event"
    },
    {
      "anonymous": false,
      "inputs": [
        {
          "indexed": true,
          "internalType": "uint256",
          "name": "attemptId",
          "type": "uint256"
        },
        {
          "indexed": true,
          "internalType": "address",
          "name": "hunter",
          "type": "address"
        },
        {
          "indexed": false,
          "internalType": "uint256",
          "name": "timestamp",
          "type": "uint256"
        }
      ],
      "name": "PotFailed",
      "type": "event"
    },
    {
      "anonymous": false,
      "inputs": [
        {
          "indexed": true,
          "internalType": "uint256",
          "name": "potId",
          "type": "uint256"
        },
        {
          "indexed": true,
          "internalType": "address",
          "name": "hunter",
          "type": "address"
        },
        {
          "indexed": false,
          "internalType": "uint256",
          "name": "timestamp",
          "type": "uint256"
        }
      ],
      "name": "PotSolved",
      "type": "event"
    },
    {
      "anonymous": false,
      "inputs": [
        {
          "indexed": true,
          "internalType": "address",
          "name": "from",
          "type": "address"
        },
        {
          "indexed": true,
          "internalType": "address",
          "name": "to",
          "type": "address"
        },
        {
          "indexed": false,
          "internalType": "uint256",
          "name": "value",
          "type": "uint256"
        }
      ],
      "name": "Transfer",
      "type": "event"
    },
    {
      "anonymous": false,
      "inputs": [
        {
          "indexed": false,
          "internalType": "address",
          "name": "account",
          "type": "address"
        }
      ],
      "name": "Unpaused",
      "type": "event"
    },
    {
      "anonymous": false,
      "inputs": [
        {
          "indexed": true,
          "internalType": "address",
          "name": "implementation",
          "type": "address"
        }
      ],
      "name": "Upgraded",
      "type": "event"
    },
    {
      "inputs": [],
      "name": "CREATOR_ENTRY_FEE_SHARE_PERCENT",
      "outputs": [
        {
          "internalType": "uint256",
          "name": "",
          "type": "uint256"
        }
      ],
      "stateMutability": "view",
      "type": "function"
    },
    {
      "inputs": [],
      "name": "DIFFICULTY_MOD",
      "outputs": [
        {
          "internalType": "uint256",
          "name": "",
          "type": "uint256"
        }
      ],
      "stateMutability": "view",
      "type": "function"
    },
    {
      "inputs": [],
      "name": "DOMAIN_SEPARATOR",
      "outputs": [
        {
          "internalType": "bytes32",
          "name": "",
          "type": "bytes32"
        }
      ],
      "stateMutability": "view",
      "type": "function"
    },
    {
      "inputs": [],
      "name": "HUNTER_SHARE_PERCENT",
      "outputs": [
        {
          "internalType": "uint256",
          "name": "",
          "type": "uint256"
        }
      ],
      "stateMutability": "view",
      "type": "function"
    },
    {
      "inputs": [],
      "name": "INITIAL_SUPPLY",
      "outputs": [
        {
          "internalType": "uint256",
          "name": "",
          "type": "uint256"
        }
      ],
      "stateMutability": "view",
      "type": "function"
    },
    {
      "inputs": [],
      "name": "MAX_SUPPLY",
      "outputs": [
        {
          "internalType": "uint256",
          "name": "",
          "type": "uint256"
        }
      ],
      "stateMutability": "view",
      "type": "function"
    },
    {
      "inputs": [
        {
          "internalType": "address",
          "name": "owner",
          "type": "address"
        },
        {
          "internalType": "address",
          "name": "spender",
          "type": "address"
        }
      ],
      "name": "allowance",
      "outputs": [
        {
          "internalType": "uint256",
          "name": "",
          "type": "uint256"
        }
      ],
      "stateMutability": "view",
      "type": "function"
    },
    {
      "inputs": [
        {
          "internalType": "address",
          "name": "spender",
          "type": "address"
        },
        {
          "internalType": "uint256",
          "name": "amount",
          "type": "uint256"
        }
      ],
      "name": "approve",
      "outputs": [
        {
          "internalType": "bool",
          "name": "",
          "type": "bool"
        }
      ],
      "stateMutability": "nonpayable",
      "type": "function"
    },
    {
      "inputs": [
        {
          "internalType": "uint256",
          "name": "attemptId",
          "type": "uint256"
        },
        {
          "internalType": "bool",
          "name": "status",
          "type": "bool"
        }
      ],
      "name": "attemptCompleted",
      "outputs": [],
      "stateMutability": "nonpayable",
      "type": "function"
    },
    {
      "inputs": [
        {
          "internalType": "uint256",
          "name": "potId",
          "type": "uint256"
        }
      ],
      "name": "attemptPot",
      "outputs": [
        {
          "internalType": "uint256",
          "name": "",
          "type": "uint256"
        }
      ],
      "stateMutability": "nonpayable",
      "type": "function"
    },
    {
      "inputs": [
        {
          "internalType": "uint256",
          "name": "",
          "type": "uint256"
        }
      ],
      "name": "attempts",
      "outputs": [
        {
          "internalType": "uint256",
          "name": "id",
          "type": "uint256"
        },
        {
          "internalType": "uint256",
          "name": "potId",
          "type": "uint256"
        },
        {
          "internalType": "address",
          "name": "hunter",
          "type": "address"
        },
        {
          "internalType": "uint256",
          "name": "expiresAt",
          "type": "uint256"
        },
        {
          "internalType": "uint256",
          "name": "difficulty",
          "type": "uint256"
        },
        {
          "internalType": "bool",
          "name": "isCompleted",
          "type": "bool"
        }
      ],
      "stateMutability": "view",
      "type": "function"
    },
    {
      "inputs": [
        {
          "internalType": "address",
          "name": "account",
          "type": "address"
        }
      ],
      "name": "balanceOf",
      "outputs": [
        {
          "internalType": "uint256",
          "name": "",
          "type": "uint256"
        }
      ],
      "stateMutability": "view",
      "type": "function"
    },
    {
      "inputs": [
        {
          "internalType": "uint256",
          "name": "amount",
          "type": "uint256"
        }
      ],
      "name": "burn",
      "outputs": [],
      "stateMutability": "nonpayable",
      "type": "function"
    },
    {
      "inputs": [
        {
          "internalType": "address",
          "name": "from",
          "type": "address"
        },
        {
          "internalType": "uint256",
          "name": "amount",
          "type": "uint256"
        }
      ],
      "name": "burn",
      "outputs": [],
      "stateMutability": "nonpayable",
      "type": "function"
    },
    {
      "inputs": [
        {
          "internalType": "address",
          "name": "account",
          "type": "address"
        },
        {
          "internalType": "uint256",
          "name": "amount",
          "type": "uint256"
        }
      ],
      "name": "burnFrom",
      "outputs": [],
      "stateMutability": "nonpayable",
      "type": "function"
    },
    {
      "inputs": [],
      "name": "cap",
      "outputs": [
        {
          "internalType": "uint256",
          "name": "",
          "type": "uint256"
        }
      ],
      "stateMutability": "view",
      "type": "function"
    },
    {
      "inputs": [
        {
          "internalType": "uint256",
          "name": "amount",
          "type": "uint256"
        },
        {
          "internalType": "uint256",
          "name": "durationSeconds",
          "type": "uint256"
        },
        {
          "internalType": "uint256",
          "name": "fee",
          "type": "uint256"
        },
        {
          "internalType": "address",
          "name": "oneFaAddress",
          "type": "address"
        }
      ],
      "name": "createPot",
      "outputs": [
        {
          "internalType": "uint256",
          "name": "",
          "type": "uint256"
        }
      ],
      "stateMutability": "nonpayable",
      "type": "function"
    },
    {
      "inputs": [],
      "name": "decimals",
      "outputs": [
        {
          "internalType": "uint8",
          "name": "",
          "type": "uint8"
        }
      ],
      "stateMutability": "pure",
      "type": "function"
    },
    {
      "inputs": [
        {
          "internalType": "address",
          "name": "spender",
          "type": "address"
        },
        {
          "internalType": "uint256",
          "name": "subtractedValue",
          "type": "uint256"
        }
      ],
      "name": "decreaseAllowance",
      "outputs": [
        {
          "internalType": "bool",
          "name": "",
          "type": "bool"
        }
      ],
      "stateMutability": "nonpayable",
      "type": "function"
    },
    {
      "inputs": [],
      "name": "eip712Domain",
      "outputs": [
        {
          "internalType": "bytes1",
          "name": "fields",
          "type": "bytes1"
        },
        {
          "internalType": "string",
          "name": "name",
          "type": "string"
        },
        {
          "internalType": "string",
          "name": "version",
          "type": "string"
        },
        {
          "internalType": "uint256",
          "name": "chainId",
          "type": "uint256"
        },
        {
          "internalType": "address",
          "name": "verifyingContract",
          "type": "address"
        },
        {
          "internalType": "bytes32",
          "name": "salt",
          "type": "bytes32"
        },
        {
          "internalType": "uint256[]",
          "name": "extensions",
          "type": "uint256[]"
        }
      ],
      "stateMutability": "view",
      "type": "function"
    },
    {
      "inputs": [
        {
          "internalType": "uint256",
          "name": "potId",
          "type": "uint256"
        }
      ],
      "name": "expirePot",
      "outputs": [],
      "stateMutability": "nonpayable",
      "type": "function"
    },
    {
      "inputs": [],
      "name": "getActivePots",
      "outputs": [
        {
          "internalType": "uint256[]",
          "name": "",
          "type": "uint256[]"
        }
      ],
      "stateMutability": "view",
      "type": "function"
    },
    {
      "inputs": [
        {
          "internalType": "uint256",
          "name": "attemptId",
          "type": "uint256"
        }
      ],
      "name": "getAttempt",
      "outputs": [
        {
          "components": [
            {
              "internalType": "uint256",
              "name": "id",
              "type": "uint256"
            },
            {
              "internalType": "uint256",
              "name": "potId",
              "type": "uint256"
            },
            {
              "internalType": "address",
              "name": "hunter",
              "type": "address"
            },
            {
              "internalType": "uint256",
              "name": "expiresAt",
              "type": "uint256"
            },
            {
              "internalType": "uint256",
              "name": "difficulty",
              "type": "uint256"
            },
            {
              "internalType": "bool",
              "name": "isCompleted",
              "type": "bool"
            }
          ],
          "internalType": "struct MoneyPot.Attempt",
          "name": "",
          "type": "tuple"
        }
      ],
      "stateMutability": "view",
      "type": "function"
    },
    {
      "inputs": [
        {
          "internalType": "address",
          "name": "account",
          "type": "address"
        }
      ],
      "name": "getBalance",
      "outputs": [
        {
          "internalType": "uint256",
          "name": "",
          "type": "uint256"
        }
      ],
      "stateMutability": "view",
      "type": "function"
    },
    {
      "inputs": [
        {
          "internalType": "uint256",
          "name": "potId",
          "type": "uint256"
        }
      ],
      "name": "getPot",
      "outputs": [
        {
          "components": [
            {
              "internalType": "uint256",
              "name": "id",
              "type": "uint256"
            },
            {
              "internalType": "address",
              "name": "creator",
              "type": "address"
            },
            {
              "internalType": "uint256",
              "name": "totalAmount",
              "type": "uint256"
            },
            {
              "internalType": "uint256",
              "name": "fee",
              "type": "uint256"
            },
            {
              "internalType": "uint256",
              "name": "createdAt",
              "type": "uint256"
            },
            {
              "internalType": "uint256",
              "name": "expiresAt",
              "type": "uint256"
            },
            {
              "internalType": "bool",
              "name": "isActive",
              "type": "bool"
            },
            {
              "internalType": "uint256",
              "name": "attemptsCount",
              "type": "uint256"
            },
            {
              "internalType": "address",
              "name": "oneFaAddress",
              "type": "address"
            }
          ],
          "internalType": "struct MoneyPot.MoneyPotData",
          "name": "",
          "type": "tuple"
        }
      ],
      "stateMutability": "view",
      "type": "function"
    },
    {
      "inputs": [],
      "name": "getPots",
      "outputs": [
        {
          "internalType": "uint256[]",
          "name": "",
          "type": "uint256[]"
        }
      ],
      "stateMutability": "view",
      "type": "function"
    },
    {
      "inputs": [
        {
          "internalType": "address",
          "name": "spender",
          "type": "address"
        },
        {
          "internalType": "uint256",
          "name": "addedValue",
          "type": "uint256"
        }
      ],
      "name": "increaseAllowance",
      "outputs": [
        {
          "internalType": "bool",
          "name": "",
          "type": "bool"
        }
      ],
      "stateMutability": "nonpayable",
      "type": "function"
    },
    {
      "inputs": [
        {
          "internalType": "address",
          "name": "_trustedOracle",
          "type": "address"
        }
      ],
      "name": "initialize",
      "outputs": [],
      "stateMutability": "nonpayable",
      "type": "function"
    },
    {
      "inputs": [],
      "name": "initializeToken",
      "outputs": [],
      "stateMutability": "nonpayable",
      "type": "function"
    },
    {
      "inputs": [
        {
          "internalType": "address",
          "name": "to",
          "type": "address"
        },
        {
          "internalType": "uint256",
          "name": "amount",
          "type": "uint256"
        }
      ],
      "name": "mint",
      "outputs": [],
      "stateMutability": "nonpayable",
      "type": "function"
    },
    {
      "inputs": [],
      "name": "name",
      "outputs": [
        {
          "internalType": "string",
          "name": "",
          "type": "string"
        }
      ],
      "stateMutability": "view",
      "type": "function"
    },
    {
      "inputs": [],
      "name": "nextAttemptId",
      "outputs": [
        {
          "internalType": "uint256",
          "name": "",
          "type": "uint256"
        }
      ],
      "stateMutability": "view",
      "type": "function"
    },
    {
      "inputs": [],
      "name": "nextPotId",
      "outputs": [
        {
          "internalType": "uint256",
          "name": "",
          "type": "uint256"
        }
      ],
      "stateMutability": "view",
      "type": "function"
    },
    {
      "inputs": [
        {
          "internalType": "address",
          "name": "owner",
          "type": "address"
        }
      ],
      "name": "nonces",
      "outputs": [
        {
          "internalType": "uint256",
          "name": "",
          "type": "uint256"
        }
      ],
      "stateMutability": "view",
      "type": "function"
    },
    {
      "inputs": [],
      "name": "owner",
      "outputs": [
        {
          "internalType": "address",
          "name": "",
          "type": "address"
        }
      ],
      "stateMutability": "view",
      "type": "function"
    },
    {
      "inputs": [],
      "name": "pause",
      "outputs": [],
      "stateMutability": "nonpayable",
      "type": "function"
    },
    {
      "inputs": [],
      "name": "paused",
      "outputs": [
        {
          "internalType": "bool",
          "name": "",
          "type": "bool"
        }
      ],
      "stateMutability": "view",
      "type": "function"
    },
    {
      "inputs": [
        {
          "internalType": "address",
          "name": "owner",
          "type": "address"
        },
        {
          "internalType": "address",
          "name": "spender",
          "type": "address"
        },
        {
          "internalType": "uint256",
          "name": "value",
          "type": "uint256"
        },
        {
          "internalType": "uint256",
          "name": "deadline",
          "type": "uint256"
        },
        {
          "internalType": "uint8",
          "name": "v",
          "type": "uint8"
        },
        {
          "internalType": "bytes32",
          "name": "r",
          "type": "bytes32"
        },
        {
          "internalType": "bytes32",
          "name": "s",
          "type": "bytes32"
        }
      ],
      "name": "permit",
      "outputs": [],
      "stateMutability": "nonpayable",
      "type": "function"
    },
    {
      "inputs": [
        {
          "internalType": "uint256",
          "name": "",
          "type": "uint256"
        }
      ],
      "name": "pots",
      "outputs": [
        {
          "internalType": "uint256",
          "name": "id",
          "type": "uint256"
        },
        {
          "internalType": "address",
          "name": "creator",
          "type": "address"
        },
        {
          "internalType": "uint256",
          "name": "totalAmount",
          "type": "uint256"
        },
        {
          "internalType": "uint256",
          "name": "fee",
          "type": "uint256"
        },
        {
          "internalType": "uint256",
          "name": "createdAt",
          "type": "uint256"
        },
        {
          "internalType": "uint256",
          "name": "expiresAt",
          "type": "uint256"
        },
        {
          "internalType": "bool",
          "name": "isActive",
          "type": "bool"
        },
        {
          "internalType": "uint256",
          "name": "attemptsCount",
          "type": "uint256"
        },
        {
          "internalType": "address",
          "name": "oneFaAddress",
          "type": "address"
        }
      ],
      "stateMutability": "view",
      "type": "function"
    },
    {
      "inputs": [],
      "name": "proxiableUUID",
      "outputs": [
        {
          "internalType": "bytes32",
          "name": "",
          "type": "bytes32"
        }
      ],
      "stateMutability": "view",
      "type": "function"
    },
    {
      "inputs": [],
      "name": "renounceOwnership",
      "outputs": [],
      "stateMutability": "nonpayable",
      "type": "function"
    },
    {
      "inputs": [],
      "name": "symbol",
      "outputs": [
        {
          "internalType": "string",
          "name": "",
          "type": "string"
        }
      ],
      "stateMutability": "view",
      "type": "function"
    },
    {
      "inputs": [],
      "name": "totalSupply",
      "outputs": [
        {
          "internalType": "uint256",
          "name": "",
          "type": "uint256"
        }
      ],
      "stateMutability": "view",
      "type": "function"
    },
    {
      "inputs": [
        {
          "internalType": "address",
          "name": "to",
          "type": "address"
        },
        {
          "internalType": "uint256",
          "name": "amount",
          "type": "uint256"
        }
      ],
      "name": "transfer",
      "outputs": [
        {
          "internalType": "bool",
          "name": "",
          "type": "bool"
        }
      ],
      "stateMutability": "nonpayable",
      "type": "function"
    },
    {
      "inputs": [
        {
          "internalType": "address",
          "name": "from",
          "type": "address"
        },
        {
          "internalType": "address",
          "name": "to",
          "type": "address"
        },
        {
          "internalType": "uint256",
          "name": "amount",
          "type": "uint256"
        }
      ],
      "name": "transferFrom",
      "outputs": [
        {
          "internalType": "bool",
          "name": "",
          "type": "bool"
        }
      ],
      "stateMutability": "nonpayable",
      "type": "function"
    },
    {
      "inputs": [
        {
          "internalType": "address",
          "name": "newOwner",
          "type": "address"
        }
      ],
      "name": "transferOwnership",
      "outputs": [],
      "stateMutability": "nonpayable",
      "type": "function"
    },
    {
      "inputs": [],
      "name": "trustedOracle",
      "outputs": [
        {
          "internalType": "address",
          "name": "",
          "type": "address"
        }
      ],
      "stateMutability": "view",
      "type": "function"
    },
    {
      "inputs": [],
      "name": "unpause",
      "outputs": [],
      "stateMutability": "nonpayable",
      "type": "function"
    },
    {
      "inputs": [
        {
          "internalType": "address",
          "name": "_verifier",
          "type": "address"
        }
      ],
      "name": "updateVerifier",
      "outputs": [],
      "stateMutability": "nonpayable",
      "type": "function"
    },
    {
      "inputs": [
        {
          "internalType": "address",
          "name": "newImplementation",
          "type": "address"
        }
      ],
      "name": "upgradeTo",
      "outputs": [],
      "stateMutability": "nonpayable",
      "type": "function"
    },
    {
      "inputs": [
        {
          "internalType": "address",
          "name": "newImplementation",
          "type": "address"
        },
        {
          "internalType": "bytes",
          "name": "data",
          "type": "bytes"
        }
      ],
      "name": "upgradeToAndCall",
      "outputs": [],
      "stateMutability": "payable",
      "type": "function"
    }
  ],
  "bytecode": "0x60a06040523060805234801561001457600080fd5b5061001d61002a565b61002561002a565b6100e9565b600054610100900460ff16156100965760405162461bcd60e51b815260206004820152602760248201527f496e697469616c697a61626c653a20636f6e747261637420697320696e697469604482015266616c697a696e6760c81b606482015260840160405180910390fd5b60005460ff908116146100e7576000805460ff191660ff9081179091556040519081527f7f26b83ff96e1f2b6a682f133852f6798a09c465da95921460cefb38474024989060200160405180910390a15b565b60805161393061012060003960008181610f9201528181610fdb015281816114180152818161145801526114e701526139306000f3fe6080604052600436106102e45760003560e01c80635b4fa76a116101905780639c6076e1116100dc578063c4d66de811610095578063dd62ed3e1161006f578063dd62ed3e146109de578063e2048503146109fe578063f2fde38b14610a1f578063f8b2cb4f14610a3f57600080fd5b8063c4d66de814610987578063d505accf146109a7578063da2dfd11146109c757600080fd5b80639c6076e11461082d5780639dc29fac1461084d578063a128bd4c1461086d578063a457c2d714610882578063a9059cbb146108a2578063c3c3df4f146108c257600080fd5b806379cc67901161014957806384b0196e1161012357806384b0196e1461079d5780638da5cb5b146107c557806395d89b41146107f857806397fc007c1461080d57600080fd5b806379cc6790146107485780637ecebe00146107685780638456cb591461078857600080fd5b80635b4fa76a1461069b5780635c975abb146106bb5780635e8d89e5146106d35780636a8896b6146106e857806370a08231146106fd578063715018a61461073357600080fd5b80633659cfe61161024f57806342b343a3116102085780634af6ac67116101e25780634af6ac67146106475780634f1ef2861461065e57806352d1902d146106715780635348361d1461068657600080fd5b806342b343a31461051a57806347bfec9e146105b55780634af02f6c1461062757600080fd5b80633659cfe61461046e57806339509351146104905780633ed9bc86146104b05780633f4ba83a146104c557806340c10f19146104da57806342966c68146104fa57600080fd5b80632e411f26116102a15780632e411f26146103d25780632ff2e9dc146103f2578063313ce5671461040c57806332cb6b0c14610428578063355274ea146104435780633644e5151461045957600080fd5b806306fdde03146102e9578063095ea7b31461031457806318160ddd1461034457806323b872dd1461036357806328d3ad3f146103835780632a454c66146103b0575b600080fd5b3480156102f557600080fd5b506102fe610a5f565b60405161030b9190613186565b60405180910390f35b34801561032057600080fd5b5061033461032f3660046131b0565b610af1565b604051901515815260200161030b565b34801561035057600080fd5b506035545b60405190815260200161030b565b34801561036f57600080fd5b5061033461037e3660046131da565b610b0b565b34801561038f57600080fd5b506103a361039e366004613217565b610b2f565b60405161030b9190613230565b3480156103bc57600080fd5b506103c5610c1b565b60405161030b91906132ec565b3480156103de57600080fd5b506103556103ed366004613217565b610d74565b3480156103fe57600080fd5b506103556509184e72a00081565b34801561041857600080fd5b506040516006815260200161030b565b34801561043457600080fd5b50610355662386f26fc1000081565b34801561044f57600080fd5b5061013054610355565b34801561046557600080fd5b50610355610f79565b34801561047a57600080fd5b5061048e6104893660046132ff565b610f88565b005b34801561049c57600080fd5b506103346104ab3660046131b0565b611070565b3480156104bc57600080fd5b5061048e611092565b3480156104d157600080fd5b5061048e611127565b3480156104e657600080fd5b5061048e6104f53660046131b0565b611139565b34801561050657600080fd5b5061048e610515366004613217565b61114f565b34801561052657600080fd5b50610578610535366004613217565b61026160205260009081526040902080546001820154600283015460038401546004850154600590950154939492936001600160a01b0390921692909160ff1686565b6040805196875260208701959095526001600160a01b039093169385019390935260608401526080830191909152151560a082015260c00161030b565b3480156105c157600080fd5b506105d56105d0366004613217565b611159565b60405161030b919081518152602080830151908201526040808301516001600160a01b031690820152606080830151908201526080808301519082015260a09182015115159181019190915260c00190565b34801561063357600080fd5b5061048e61064236600461331a565b611205565b34801561065357600080fd5b5061035561025e5481565b61048e61066c366004613365565b61140e565b34801561067d57600080fd5b506103556114da565b34801561069257600080fd5b50610355603281565b3480156106a757600080fd5b5061048e6106b6366004613217565b61158d565b3480156106c757600080fd5b5060cc5460ff16610334565b3480156106df57600080fd5b50610355600381565b3480156106f457600080fd5b506103c561166d565b34801561070957600080fd5b506103556107183660046132ff565b6001600160a01b031660009081526033602052604090205490565b34801561073f57600080fd5b5061048e6116c5565b34801561075457600080fd5b5061048e6107633660046131b0565b6116d7565b34801561077457600080fd5b506103556107833660046132ff565b6116ec565b34801561079457600080fd5b5061048e61170a565b3480156107a957600080fd5b506107b261171a565b60405161030b979695949392919061342f565b3480156107d157600080fd5b50610195546001600160a01b03165b6040516001600160a01b03909116815260200161030b565b34801561080457600080fd5b506102fe6117b8565b34801561081957600080fd5b5061048e6108283660046132ff565b6117c7565b34801561083957600080fd5b5061035561084836600461349f565b61183b565b34801561085957600080fd5b5061048e6108683660046131b0565b6119fa565b34801561087957600080fd5b50610355602881565b34801561088e57600080fd5b5061033461089d3660046131b0565b611a8e565b3480156108ae57600080fd5b506103346108bd3660046131b0565b611b09565b3480156108ce57600080fd5b506109396108dd366004613217565b6102606020526000908152604090208054600182015460028301546003840154600485015460058601546006870154600788015460089098015496976001600160a01b0396871697959694959394929360ff9092169290911689565b60408051998a526001600160a01b0398891660208b01528901969096526060880194909452608087019290925260a0860152151560c085015260e0840152166101008201526101200161030b565b34801561099357600080fd5b5061048e6109a23660046132ff565b611b17565b3480156109b357600080fd5b5061048e6109c23660046134de565b611c44565b3480156109d357600080fd5b5061035561025f5481565b3480156109ea57600080fd5b506103556109f9366004613551565b611da8565b348015610a0a57600080fd5b5061025d546107e0906001600160a01b031681565b348015610a2b57600080fd5b5061048e610a3a3660046132ff565b611dd3565b348015610a4b57600080fd5b50610355610a5a3660046132ff565b611e49565b606060368054610a6e90613584565b80601f0160208091040260200160405190810160405280929190818152602001828054610a9a90613584565b8015610ae75780601f10610abc57610100808354040283529160200191610ae7565b820191906000526020600020905b815481529060010190602001808311610aca57829003601f168201915b5050505050905090565b600033610aff818585611e67565b60019150505b92915050565b600033610b19858285611f8b565b610b24858585612005565b506001949350505050565b610b926040518061012001604052806000815260200160006001600160a01b03168152602001600081526020016000815260200160008152602001600081526020016000151581526020016000815260200160006001600160a01b031681525090565b50600090815261026060209081526040918290208251610120810184528154815260018201546001600160a01b03908116938201939093526002820154938101939093526003810154606084015260048101546080840152600581015460a0840152600681015460ff16151560c0840152600781015460e0840152600801541661010082015290565b60606000805b61026254811015610c825761026060006102628381548110610c4557610c456135b8565b6000918252602080832090910154835282019290925260400190206006015460ff1615610c7a5781610c76816135e4565b9250505b600101610c21565b5060008167ffffffffffffffff811115610c9e57610c9e61334f565b604051908082528060200260200182016040528015610cc7578160200160208202803683370190505b5090506000805b61026254811015610d6b5761026060006102628381548110610cf257610cf26135b8565b6000918252602080832090910154835282019290925260400190206006015460ff1615610d63576102628181548110610d2d57610d2d6135b8565b9060005260206000200154838380610d44906135e4565b945081518110610d5657610d566135b8565b6020026020010181815250505b600101610cce565b50909392505050565b6000610d7e6121bb565b600082815261026060205260409020600681015460ff16610db257604051633c8555d960e11b815260040160405180910390fd5b80600501544210610dd65760405163141d1aef60e11b815260040160405180910390fd5b600381015460006064610dea6032846135fd565b610df4919061362a565b90506000610e02828461363e565b6001850154909150610e1f9033906001600160a01b031684612005565b610e2a333083612005565b600784018054906000610e3c836135e4565b909155505061025f805460009182610e53836135e4565b919050559050600060038660070154610e6c9190613651565b610e77906002613665565b90506040518060c00160405280838152602001898152602001336001600160a01b031681526020014261012c610ead9190613665565b8152602080820184905260006040928301819052858152610261825282902083518155838201516001820155838301516002820180546001600160a01b0319166001600160a01b03909216919091179055606084015160038201556080840151600482015560a0909301516005909301805460ff1916931515939093179092555142815233918a9185917fb90c27c76196956b18f7c45a7c71853ab24e4da908f02d74d0aeed97a8d369ab910160405180910390a450945050505050610f7460016101c755565b919050565b6000610f8361221e565b905090565b6001600160a01b037f0000000000000000000000000000000000000000000000000000000000000000163003610fd95760405162461bcd60e51b8152600401610fd090613678565b60405180910390fd5b7f00000000000000000000000000000000000000000000000000000000000000006001600160a01b03166110226000805160206138b4833981519152546001600160a01b031690565b6001600160a01b0316146110485760405162461bcd60e51b8152600401610fd0906136c4565b61105181612228565b6040805160008082526020820190925261106d91839190612230565b50565b600033610aff8185856110838383611da8565b61108d9190613665565b611e67565b6040805180820182526009815268135bdb995e48141bdd60ba1b602080830191909152825180840190935260048352635553444360e01b90830152906110d8828261239b565b6110e1826123cc565b6110f1662386f26fc10000612416565b6110f9612446565b611101612475565b6111096124a4565b6111116124d3565b33611122816509184e72a0006124fa565b505050565b61112f612504565b61113761255f565b565b611141612504565b61114b82826124fa565b5050565b61106d33826125b1565b61119d6040518060c00160405280600081526020016000815260200160006001600160a01b0316815260200160008152602001600081526020016000151581525090565b5060009081526102616020908152604091829020825160c0810184528154815260018201549281019290925260028101546001600160a01b031692820192909252600382015460608201526004820154608082015260059091015460ff16151560a082015290565b61120d6121bb565b61025d546001600160a01b03163314611238576040516282b42960e81b815260040160405180910390fd5b60008281526102616020908152604080832060018101548452610260909252909120600681015460ff1661127f57604051633c8555d960e11b815260040160405180910390fd5b806005015442106112a35760405163141d1aef60e11b815260040160405180910390fd5b816003015442106112c757604051630350d87360e01b815260040160405180910390fd5b600582015460ff16156112ed576040516303216c4560e61b815260040160405180910390fd5b60058201805460ff1916600117905582156113ba5760068101805460ff191690556002810154600090606490611325906028906135fd565b61132f919061362a565b90506000818360020154611343919061363e565b60028501549091506113609030906001600160a01b031684612005565b61136a30826125b1565b600284015460018501546040514281526001600160a01b03909216917ff1287295bd091db1377c2cb22ff6fbdadb12d5d0b29617d536c87cc1c36a16fe9060200160405180910390a35050611401565b60028201546040514281526001600160a01b039091169085907f37ca40d98896f541f571cbd03cce23dc1f58d70e76716c231ce0513ae429624e9060200160405180910390a35b505061114b60016101c755565b6001600160a01b037f00000000000000000000000000000000000000000000000000000000000000001630036114565760405162461bcd60e51b8152600401610fd090613678565b7f00000000000000000000000000000000000000000000000000000000000000006001600160a01b031661149f6000805160206138b4833981519152546001600160a01b031690565b6001600160a01b0316146114c55760405162461bcd60e51b8152600401610fd0906136c4565b6114ce82612228565b61114b82826001612230565b6000306001600160a01b037f0000000000000000000000000000000000000000000000000000000000000000161461157a5760405162461bcd60e51b815260206004820152603860248201527f555550535570677261646561626c653a206d757374206e6f742062652063616c60448201527f6c6564207468726f7567682064656c656761746563616c6c00000000000000006064820152608401610fd0565b506000805160206138b483398151915290565b6115956121bb565b600081815261026060205260409020600681015460ff166115c957604051633c8555d960e11b815260040160405180910390fd5b80600501544210156115ee5760405163d0404f8560e01b815260040160405180910390fd5b60068101805460ff191690556001810154600282015461161b9130916001600160a01b0390911690612005565b60018101546040514281526001600160a01b039091169083907fe9329c07e095ee411f7af93fd90be38fd4cfe35687d55bfc1801a8579267146f9060200160405180910390a35061106d60016101c755565b6060610262805480602002602001604051908101604052809291908181526020018280548015610ae757602002820191906000526020600020905b8154815260200190600101908083116116a8575050505050905090565b6116cd612504565b61113760006126f1565b6116e2823383611f8b565b61114b82826125b1565b6001600160a01b038116600090815260996020526040812054610b05565b611712612504565b611137612744565b6000606080600080600060606065546000801b14801561173a5750606654155b61177e5760405162461bcd60e51b81526020600482015260156024820152741152540dcc4c8e88155b9a5b9a5d1a585b1a5e9959605a1b6044820152606401610fd0565b611786612781565b61178e612790565b60408051600080825260208201909252600f60f81b9b939a50919850469750309650945092509050565b606060378054610a6e90613584565b6117cf612504565b6001600160a01b0381166118185760405162461bcd60e51b815260206004820152601060248201526f24b73b30b634b2103b32b934b334b2b960811b6044820152606401610fd0565b61025d80546001600160a01b0319166001600160a01b0392909216919091179055565b60006118456121bb565b84831115611866576040516358d620b360e01b815260040160405180910390fd5b61025e805460009182611878836135e4565b919050559050604051806101200160405280828152602001336001600160a01b0316815260200187815260200185815260200142815260200186426118bd9190613665565b815260016020808301829052600060408085018290526001600160a01b038981166060968701528783526102608452818320875181559387015184860180546001600160a01b03199081169284169290921790559187015160028501559486015160038401556080860151600484015560a0860151600584015560c086015160068401805460ff191691151591909117905560e08601516007840155610100909501516008909201805490951691909316179092556102628054928301815590527f338bfe207be87fe819ed3a8a6fc3e5b2e6e3d835cbfe1057849661fdcf4c6391018190556119ae333088612005565b604051428152339082907f105e89af34e210616abcb0ffda64ce2a3408643b8d2f2db8f72f004c01cd38d29060200160405180910390a390506119f260016101c755565b949350505050565b336001600160a01b0383161480611a1c5750610195546001600160a01b031633145b6116e25760405162461bcd60e51b815260206004820152603f60248201527f4f6e6c7920746865206f776e6572206f662074686520746f6b656e206f72207460448201527f686520746f6b656e20686f6c6465722063616e206275726e20746f6b656e73006064820152608401610fd0565b60003381611a9c8286611da8565b905083811015611afc5760405162461bcd60e51b815260206004820152602560248201527f45524332303a2064656372656173656420616c6c6f77616e63652062656c6f77604482015264207a65726f60d81b6064820152608401610fd0565b610b248286868403611e67565b600033610aff818585612005565b600054610100900460ff1615808015611b375750600054600160ff909116105b80611b515750303b158015611b51575060005460ff166001145b611bb45760405162461bcd60e51b815260206004820152602e60248201527f496e697469616c697a61626c653a20636f6e747261637420697320616c72656160448201526d191e481a5b9a5d1a585b1a5e995960921b6064820152608401610fd0565b6000805460ff191660011790558015611bd7576000805461ff0019166101001790555b611bdf611092565b61025d80546001600160a01b0319166001600160a01b038416179055801561114b576000805461ff0019169055604051600181527f7f26b83ff96e1f2b6a682f133852f6798a09c465da95921460cefb38474024989060200160405180910390a15050565b83421115611c945760405162461bcd60e51b815260206004820152601d60248201527f45524332305065726d69743a206578706972656420646561646c696e650000006044820152606401610fd0565b60007f6e71edae12b1b97f4d1f60370fef10105fa2faae0126114a169c64845d6126c9888888611cc38c61279f565b6040805160208101969096526001600160a01b0394851690860152929091166060840152608083015260a082015260c0810186905260e0016040516020818303038152906040528051906020012090506000611d1e826127c7565b90506000611d2e828787876127f4565b9050896001600160a01b0316816001600160a01b031614611d915760405162461bcd60e51b815260206004820152601e60248201527f45524332305065726d69743a20696e76616c6964207369676e617475726500006044820152606401610fd0565b611d9c8a8a8a611e67565b50505050505050505050565b6001600160a01b03918216600090815260346020908152604080832093909416825291909152205490565b611ddb612504565b6001600160a01b038116611e405760405162461bcd60e51b815260206004820152602660248201527f4f776e61626c653a206e6577206f776e657220697320746865207a65726f206160448201526564647265737360d01b6064820152608401610fd0565b61106d816126f1565b6001600160a01b038116600090815260336020526040812054610b05565b6001600160a01b038316611ec95760405162461bcd60e51b8152602060048201526024808201527f45524332303a20617070726f76652066726f6d20746865207a65726f206164646044820152637265737360e01b6064820152608401610fd0565b6001600160a01b038216611f2a5760405162461bcd60e51b815260206004820152602260248201527f45524332303a20617070726f766520746f20746865207a65726f206164647265604482015261737360f01b6064820152608401610fd0565b6001600160a01b0383811660008181526034602090815260408083209487168084529482529182902085905590518481527f8c5be1e5ebec7d5bd14f71427d1e84f3dd0314c0f7b2291e5b200ac8c7c3b925910160405180910390a3505050565b6000611f978484611da8565b90506000198114611fff5781811015611ff25760405162461bcd60e51b815260206004820152601d60248201527f45524332303a20696e73756666696369656e7420616c6c6f77616e63650000006044820152606401610fd0565b611fff8484848403611e67565b50505050565b6001600160a01b0383166120695760405162461bcd60e51b815260206004820152602560248201527f45524332303a207472616e736665722066726f6d20746865207a65726f206164604482015264647265737360d81b6064820152608401610fd0565b6001600160a01b0382166120cb5760405162461bcd60e51b815260206004820152602360248201527f45524332303a207472616e7366657220746f20746865207a65726f206164647260448201526265737360e81b6064820152608401610fd0565b6120d683838361281c565b6001600160a01b0383166000908152603360205260409020548181101561214e5760405162461bcd60e51b815260206004820152602660248201527f45524332303a207472616e7366657220616d6f756e7420657863656564732062604482015265616c616e636560d01b6064820152608401610fd0565b6001600160a01b0380851660008181526033602052604080822086860390559286168082529083902080548601905591517fddf252ad1be2c89b69c2b068fc378daa952ba7f163c4a11628f55a4df523b3ef906121ae9086815260200190565b60405180910390a3611fff565b60026101c7540361220e5760405162461bcd60e51b815260206004820152601f60248201527f5265656e7472616e637947756172643a207265656e7472616e742063616c6c006044820152606401610fd0565b60026101c755565b60016101c755565b6000610f83612827565b61106d612504565b7f4910fdfa16fed3260ed0e7147f7cc6da11a60208b5b9406d12a635614ffd91435460ff1615612263576111228361289b565b826001600160a01b03166352d1902d6040518163ffffffff1660e01b8152600401602060405180830381865afa9250505080156122bd575060408051601f3d908101601f191682019092526122ba91810190613710565b60015b6123205760405162461bcd60e51b815260206004820152602e60248201527f45524331393637557067726164653a206e657720696d706c656d656e7461746960448201526d6f6e206973206e6f74205555505360901b6064820152608401610fd0565b6000805160206138b4833981519152811461238f5760405162461bcd60e51b815260206004820152602960248201527f45524331393637557067726164653a20756e737570706f727465642070726f786044820152681a58589b195555525160ba1b6064820152608401610fd0565b50611122838383612937565b600054610100900460ff166123c25760405162461bcd60e51b8152600401610fd090613729565b61114b828261295c565b600054610100900460ff166123f35760405162461bcd60e51b8152600401610fd090613729565b61106d81604051806040016040528060018152602001603160f81b81525061299c565b600054610100900460ff1661243d5760405162461bcd60e51b8152600401610fd090613729565b61106d816129eb565b600054610100900460ff1661246d5760405162461bcd60e51b8152600401610fd090613729565b611137612a60565b600054610100900460ff1661249c5760405162461bcd60e51b8152600401610fd090613729565b611137612a93565b600054610100900460ff166124cb5760405162461bcd60e51b8152600401610fd090613729565b611137612ac3565b600054610100900460ff166111375760405162461bcd60e51b8152600401610fd090613729565b61114b8282612aea565b610195546001600160a01b031633146111375760405162461bcd60e51b815260206004820181905260248201527f4f776e61626c653a2063616c6c6572206973206e6f7420746865206f776e65726044820152606401610fd0565b612567612b5a565b60cc805460ff191690557f5db9ee0a495bf2e6ff9c91a7834c1ba4fdd244a5e8aa4e537bd38aeae4b073aa335b6040516001600160a01b03909116815260200160405180910390a1565b6001600160a01b0382166126115760405162461bcd60e51b815260206004820152602160248201527f45524332303a206275726e2066726f6d20746865207a65726f206164647265736044820152607360f81b6064820152608401610fd0565b61261d8260008361281c565b6001600160a01b038216600090815260336020526040902054818110156126915760405162461bcd60e51b815260206004820152602260248201527f45524332303a206275726e20616d6f756e7420657863656564732062616c616e604482015261636560f01b6064820152608401610fd0565b6001600160a01b03831660008181526033602090815260408083208686039055603580548790039055518581529192917fddf252ad1be2c89b69c2b068fc378daa952ba7f163c4a11628f55a4df523b3ef910160405180910390a3505050565b61019580546001600160a01b038381166001600160a01b0319831681179093556040519116919082907f8be0079c531659141344cd1fd0a4f28419497f9722a3daafe3b4186f6b6457e090600090a35050565b61274c612ba3565b60cc805460ff191660011790557f62e78cea01bee320cd4e420270b5ea74000d11b0c9f74754ebdbfc544b05a2586125943390565b606060678054610a6e90613584565b606060688054610a6e90613584565b6001600160a01b03811660009081526099602052604090208054600181018255905b50919050565b6000610b056127d461221e565b8360405161190160f01b8152600281019290925260228201526042902090565b600080600061280587878787612be9565b9150915061281281612cad565b5095945050505050565b611122838383612df7565b60007f8b73c3c69bb8fe3d512ecc4cf759cc79239f7b179b0ffacaa9a75d522b39400f612852612e5d565b61285a612eb6565b60408051602081019490945283019190915260608201524660808201523060a082015260c00160405160208183030381529060405280519060200120905090565b6001600160a01b0381163b6129085760405162461bcd60e51b815260206004820152602d60248201527f455243313936373a206e657720696d706c656d656e746174696f6e206973206e60448201526c1bdd08184818dbdb9d1c9858dd609a1b6064820152608401610fd0565b6000805160206138b483398151915280546001600160a01b0319166001600160a01b0392909216919091179055565b61294083612ee7565b60008251118061294d5750805b1561112257611fff8383612f27565b600054610100900460ff166129835760405162461bcd60e51b8152600401610fd090613729565b603661298f83826137c2565b50603761112282826137c2565b600054610100900460ff166129c35760405162461bcd60e51b8152600401610fd090613729565b60676129cf83826137c2565b5060686129dc82826137c2565b50506000606581905560665550565b600054610100900460ff16612a125760405162461bcd60e51b8152600401610fd090613729565b60008111612a5a5760405162461bcd60e51b8152602060048201526015602482015274045524332304361707065643a20636170206973203605c1b6044820152606401610fd0565b61013055565b600054610100900460ff16612a875760405162461bcd60e51b8152600401610fd090613729565b60cc805460ff19169055565b600054610100900460ff16612aba5760405162461bcd60e51b8152600401610fd090613729565b611137336126f1565b600054610100900460ff166122165760405162461bcd60e51b8152600401610fd090613729565b6101305481612af860355490565b612b029190613665565b1115612b505760405162461bcd60e51b815260206004820152601960248201527f45524332304361707065643a20636170206578636565646564000000000000006044820152606401610fd0565b61114b8282612f53565b60cc5460ff166111375760405162461bcd60e51b815260206004820152601460248201527314185d5cd8589b194e881b9bdd081c185d5cd95960621b6044820152606401610fd0565b60cc5460ff16156111375760405162461bcd60e51b815260206004820152601060248201526f14185d5cd8589b194e881c185d5cd95960821b6044820152606401610fd0565b6000807f7fffffffffffffffffffffffffffffff5d576e7357a4501ddfe92f46681b20a0831115612c205750600090506003612ca4565b6040805160008082526020820180845289905260ff881692820192909252606081018690526080810185905260019060a0016020604051602081039080840390855afa158015612c74573d6000803e3d6000fd5b5050604051601f1901519150506001600160a01b038116612c9d57600060019250925050612ca4565b9150600090505b94509492505050565b6000816004811115612cc157612cc1613881565b03612cc95750565b6001816004811115612cdd57612cdd613881565b03612d2a5760405162461bcd60e51b815260206004820152601860248201527f45434453413a20696e76616c6964207369676e617475726500000000000000006044820152606401610fd0565b6002816004811115612d3e57612d3e613881565b03612d8b5760405162461bcd60e51b815260206004820152601f60248201527f45434453413a20696e76616c6964207369676e6174757265206c656e677468006044820152606401610fd0565b6003816004811115612d9f57612d9f613881565b0361106d5760405162461bcd60e51b815260206004820152602260248201527f45434453413a20696e76616c6964207369676e6174757265202773272076616c604482015261756560f01b6064820152608401610fd0565b60cc5460ff16156111225760405162461bcd60e51b815260206004820152602a60248201527f45524332305061757361626c653a20746f6b656e207472616e736665722077686044820152691a5b19481c185d5cd95960b21b6064820152608401610fd0565b600080612e68612781565b805190915015612e7f578051602090910120919050565b6065548015612e8e5792915050565b7fc5d2460186f7233c927e7db2dcc703c0e500b653ca82273b7bfad8045d85a4709250505090565b600080612ec1612790565b805190915015612ed8578051602090910120919050565b6066548015612e8e5792915050565b612ef08161289b565b6040516001600160a01b038216907fbc7cd75a20ee27fd9adebab32041f755214dbc6bffa90cc0225b39da2e5c2d3b90600090a250565b6060612f4c83836040518060600160405280602781526020016138d460279139613020565b9392505050565b6001600160a01b038216612fa95760405162461bcd60e51b815260206004820152601f60248201527f45524332303a206d696e7420746f20746865207a65726f2061646472657373006044820152606401610fd0565b612fb56000838361281c565b8060356000828254612fc79190613665565b90915550506001600160a01b0382166000818152603360209081526040808320805486019055518481527fddf252ad1be2c89b69c2b068fc378daa952ba7f163c4a11628f55a4df523b3ef910160405180910390a35050565b6060600080856001600160a01b03168560405161303d9190613897565b600060405180830381855af49150503d8060008114613078576040519150601f19603f3d011682016040523d82523d6000602084013e61307d565b606091505b509150915061308e86838387613098565b9695505050505050565b60608315613107578251600003613100576001600160a01b0385163b6131005760405162461bcd60e51b815260206004820152601d60248201527f416464726573733a2063616c6c20746f206e6f6e2d636f6e74726163740000006044820152606401610fd0565b50816119f2565b6119f2838381511561311c5781518083602001fd5b8060405162461bcd60e51b8152600401610fd09190613186565b60005b83811015613151578181015183820152602001613139565b50506000910152565b60008151808452613172816020860160208601613136565b601f01601f19169290920160200192915050565b602081526000612f4c602083018461315a565b80356001600160a01b0381168114610f7457600080fd5b600080604083850312156131c357600080fd5b6131cc83613199565b946020939093013593505050565b6000806000606084860312156131ef57600080fd5b6131f884613199565b925061320660208501613199565b929592945050506040919091013590565b60006020828403121561322957600080fd5b5035919050565b6000610120820190508251825260018060a01b03602084015116602083015260408301516040830152606083015160608301526080830151608083015260a083015160a083015260c0830151151560c083015260e083015160e08301526101008301516132a96101008401826001600160a01b03169052565b5092915050565b600081518084526020840193506020830160005b828110156132e25781518652602095860195909101906001016132c4565b5093949350505050565b602081526000612f4c60208301846132b0565b60006020828403121561331157600080fd5b612f4c82613199565b6000806040838503121561332d57600080fd5b823591506020830135801515811461334457600080fd5b809150509250929050565b634e487b7160e01b600052604160045260246000fd5b6000806040838503121561337857600080fd5b61338183613199565b9150602083013567ffffffffffffffff81111561339d57600080fd5b8301601f810185136133ae57600080fd5b803567ffffffffffffffff8111156133c8576133c861334f565b604051601f8201601f19908116603f0116810167ffffffffffffffff811182821017156133f7576133f761334f565b60405281815282820160200187101561340f57600080fd5b816020840160208301376000602083830101528093505050509250929050565b60ff60f81b8816815260e06020820152600061344e60e083018961315a565b8281036040840152613460818961315a565b606084018890526001600160a01b038716608085015260a0840186905283810360c0850152905061349181856132b0565b9a9950505050505050505050565b600080600080608085870312156134b557600080fd5b8435935060208501359250604085013591506134d360608601613199565b905092959194509250565b600080600080600080600060e0888a0312156134f957600080fd5b61350288613199565b965061351060208901613199565b95506040880135945060608801359350608088013560ff8116811461353457600080fd5b9699959850939692959460a0840135945060c09093013592915050565b6000806040838503121561356457600080fd5b61356d83613199565b915061357b60208401613199565b90509250929050565b600181811c9082168061359857607f821691505b6020821081036127c157634e487b7160e01b600052602260045260246000fd5b634e487b7160e01b600052603260045260246000fd5b634e487b7160e01b600052601160045260246000fd5b6000600182016135f6576135f66135ce565b5060010190565b8082028115828204841417610b0557610b056135ce565b634e487b7160e01b600052601260045260246000fd5b60008261363957613639613614565b500490565b81810381811115610b0557610b056135ce565b60008261366057613660613614565b500690565b80820180821115610b0557610b056135ce565b6020808252602c908201527f46756e6374696f6e206d7573742062652063616c6c6564207468726f7567682060408201526b19195b1959d85d1958d85b1b60a21b606082015260800190565b6020808252602c908201527f46756e6374696f6e206d7573742062652063616c6c6564207468726f7567682060408201526b6163746976652070726f787960a01b606082015260800190565b60006020828403121561372257600080fd5b5051919050565b6020808252602b908201527f496e697469616c697a61626c653a20636f6e7472616374206973206e6f74206960408201526a6e697469616c697a696e6760a81b606082015260800190565b601f82111561112257806000526020600020601f840160051c8101602085101561379b5750805b601f840160051c820191505b818110156137bb57600081556001016137a7565b5050505050565b815167ffffffffffffffff8111156137dc576137dc61334f565b6137f0816137ea8454613584565b84613774565b6020601f821160018114613824576000831561380c5750848201515b600019600385901b1c1916600184901b1784556137bb565b600084815260208120601f198516915b828110156138545787850151825560209485019460019092019101613834565b50848210156138725786840151600019600387901b60f8161c191681555b50505050600190811b01905550565b634e487b7160e01b600052602160045260246000fd5b600082516138a9818460208701613136565b919091019291505056fe360894a13ba1a3210667c828492db98dca3e2076cc3735a920a3ca505d382bbc416464726573733a206c6f772d6c6576656c2064656c65676174652063616c6c206661696c6564a264697066735822122036383b324b9772cd7fae8cb65520cd6009a7717ae009ab2ce6b5b9d00368d0b564736f6c634300081e0033",
  "linkReferences": {},
  "deployedLinkReferences": {}
}